:100000000C94A6040C94ED040C94ED040C94ED04F3
:100010000C94ED040C94ED040C94ED040C94ED049C
:100020000C94ED040C94ED040C94D12D0C94A32E9F
:100030000C9459280C94ED040C94ED040C94ED04EC
:100040000C94ED040C94ED040C94ED040C94ED046C
:100050000C94ED040C94B2280C94ED040C94ED0473
:100060000C94ED040C94ED040C94ED040C94ED044C
:100070000C94ED040C94ED040C94ED040C94ED043C
:100080000C94ED040C94ED040C94ED040C94ED042C
:100090000C94ED040C94ED040C94ED040C94ED041C
:1000A0000C94ED040C94ED040C94ED04A108A1084B
:1000B000D308D3082709500A500A500A4509AD0948
:1000C000BE09BE09400A500A500A490AFC0AFC0A45
:1000D0000E0B0E0B050B0E0B0E0B0E0BFC0AFC0A87
:1000E0000A0B0E0B0E0B0A0BE9200C2114215B21CD
:1000F00075218C219B21B521E021C021E021E02147
:10010000E021D221102F372F2F30372F2F30832F80
:10011000A62F2F30FD2F0C3029001E001F002000BD
:1001200021002200230024002500260027002D00A6
:100130002E002A002B0014001A00080015001700DA
:100140001C0018000C00120013002F0030003100BA
:10015000390004001600070009000A000B000D001A
:100160000E000F003300340028000000E1001D00E5
:100170001B000600190005000500110010003600E4
:1001800037003800E5004C004A004B004E00E0000C
:10019000E2002C0001512C002C00E6005000510020
:1001A000E4004C0001003A003B003C003D003E00F2
:1001B0003F00400041004200430044004500010070
:1001C000010001004A0052004D0001000100010041
:1001D0000100010001000100010001000100010017
:1001E000500051004F00010001000100010001001A
:1001F00001000100010000000100010001000100F8
:1002000001000100010001000100010001000100E6
:1002100001000100C25CA900AA0001000100010068
:1002200001000100010001000100010001000100C6
:1002300000000000000000002A2B28000000000041
:100240000000000000000000000000290000000085
:100250002C1E3420212224342627252E362D3738F3
:10026000271E1F202122232425263333362E3738FC
:100270001F0405060708090A0B0C0D0E0F101112BA
:10028000131415161718191A1B1C1D2F3130232D86
:10029000350405060708090A0B0C0D0E0F10111284
:1002A000131415161718191A1B1C1D2F3130354C35
:1002B000000000000000000000000000000000003E
:1002C000000000000000000000000000000000002E
:1002D000000000007E0F00D4FFFFFFC70000007881
:1002E00000047F3F1F643214643214783C1E1E14D5
:1002F0000A052223252628292A2C2D2F3032333592
:1003000036383A3B3D3E4042434547494A4C4E50C1
:1003100051535557595A5C5E6062646668696B6DEB
:100320006F71737577797B7D7F81838587898A8CEF
:100330008E90929496989A9C9E9FA1A3A5A7A8AAF6
:10034000ACAEAFB1B3B4B6B8B9BBBCBEBFC1C2C32B
:10035000C5C6C7C9CACBCCCDCED0D1D2D2D3D4D5C5
:10036000D6D7D7D8D9D9DADADBDBDBDCDCDCDCDCEE
:10037000DDDDDDDDDCDCDCDCDCDBDBDBDADAD9D9C6
:10038000D8D7D7D6D5D4D3D2D2D1D0CECDCCCBCA54
:10039000C9C7C6C5C3C2C1BFBEBCBBB9B8B6B4B37A
:1003A000B1AFAEACAAA8A7A5A3A19F9E9C9A989610
:1003B0009492908E8C8A89878583817F7D7B7977E3
:1003C0007573716F6D6B6968666462605E5C5A59C3
:1003D00057555351504E4C4A4947454342403E3D84
:1003E0003B3A3836353332302F2D2C2A2928262512
:1003F0002322FFAA7F5540000101010101010101F3
:1004000001020202020202020202030303030303C7
:100410000303040404040404040505050505060695
:100420000606060707070707080808080909090953
:100430000A0A0A0B0B0B0C0C0C0D0D0D0E0E0E0FF9
:100440000F0F101011111112121313141415151689
:10045000161717181819191A1A1B1B1C1D1D1E1EFA
:100460001F2020212222232424252626272829294B
:100470002A2B2C2D2D2E2F30313232333435363776
:1004800038393A3B3C3D3E3F404142434445464774
:1004900048494A4C4D4E4F50515354555658595A4D
:1004A0005B5D5E5F616264656668696B6C6D6F70F1
:1004B00072737577787A7B7D7E8082838587888A60
:1004C0008C8E8F91939596989A9C9EA0A2A3A5A797
:1004D000A9ABADAFB1B3B5B7BABCBEC0C2C4C6C993
:1004E000CBCDCFD1D4D6D8DBDDDFE2E4E7E9EBEE4C
:1004F000F0F3F5F8FAFDFFFD377A585A000004E6EC
:10050000D6B4460200210116000000742FE5A3E0D6
:100510000786027A5D003D8889C65436C3174FE4CA
:10052000E62EA6113AAD6387BA97CE6B54B6595FE3
:100530009CB95970B7E96C870665E3C6C84DCE090A
:1005400079E330AFDA2913FCFB3056D478544440B9
:10055000F4418BA0BC61166BF178B2E30687BFF85B
:10056000C3B461A34317D9C4EDE920D2551185B3B3
:10057000FD402117DE672910800E214F8E8323A2B4
:1005800073F65E907D5A2CABFDCC3CA4E3070A8742
:10059000F8A7CE2C24DB13CC3AA891A042788AC6C7
:1005A0000E0AE5BC69B3B2E9678698897082A07CBF
:1005B00096F55DD24A5C70F3532FE5BC1A02D6392A
:1005C0001D6A43FDCBEC26419751413E428EA60F5A
:1005D000B9A599D9E37AD271D6B85F7E7FF527B4F1
:1005E0004EFB68CFD5A60D532934908B12B0D01A8C
:1005F000F5CBB45A390B8C5DFDF4D2DC12FDD8A6D4
:100600000945D40C3F310E87DD4199B25E9872D313
:10061000EEDCD216A69780A0189A46A02D629C7E8A
:10062000147E65EAFFC363646844C3CC10BB3D27F6
:100630000A747596E2E49B405CD186E530382289E5
:100640009B95BF2E05A27B585C0F3F6C9B0F1F8BA9
:10065000F0F62C2FFA1FB36D0C1996E4A146159BEA
:10066000A25169DA49F4CF9C4099B3BE144CFB10F7
:10067000BECA8DFB24686B4140C78767B8E3A5B944
:100680004AA7A348427416F0FF51BFF9621B1FC965
:100690009F910038E21F0CD4345C3684E416FD6F61
:1006A0000313895EBA913553DFAD95C41BCA173D5C
:1006B0002CFC368EF7E3D4B001A80C78228A6AA805
:1006C000F52CE9D7D755CE0C845572408D21A8A0C2
:1006D000884F4F0C33434F0CADFADBADA507123FEB
:1006E000D75C13D2929E1BBBF970FDB66EDCABFAE1
:1006F000AD5821239FEA3CD498BDF699499DD40B6F
:1007000058E093E4C1AED96E058A511B09482C5CB0
:10071000174E0A22D8E828F45FD763179D764A85DA
:100720002E9C7B6C1E8CC786635870D7D1F252A169
:1007300079A6506D798802D10D4C64E0D2BE44DABE
:100740002B15E5321E4D12E270D89B0D9388B7220F
:10075000C054393993A423F6BB58626AD6416E332C
:100760007ABD95E8A5D21F528B3F27E05B49914B9C
:1007700020E60F444FFABA08AC76301531B0E16686
:10078000F5C181466A52ED0557407DE9C6C749006B
:1007900000000044F43F096DB8106D000196058714
:1007A0000F00004C6758BBB1C467FB02000000009B
:1007B00004595AAA00A90050004F00010001001C72
:1007C000037600690061006C003A00660036003470
:1007D0000063003200620033006300000022035314
:1007E0000079006E00740068006500730069007392
:1007F00000360030002000720065007600320000F4
:10080000000803640079007A000000040309040969
:10081000025B00030100A0FA0904000001030101CA
:100820000009211101000122400007058103080091
:100830000A0904010002030000000921110100015E
:100840002222000705820320000107050303200080
:100850000109040200010300000009211101000147
:10086000226D000705840320000A12010002000027
:10087000000872D717000100010203010660FF099A
:1008800061A1010962150026FF009520750881020B
:100890000963150026FF00952075089102C0050127
:1008A0000980A101850319012AB700150126B700A7
:1008B000950175108100C0050C0901A1018504197D
:1008C000012AA002150126A002950175108100C021
:1008D00005010906A1018505050719E029E71500AD
:1008E00025019508750181020507190029EF1500FA
:1008F000250195F075018102050819012905950565
:1009000075019102950175039101C005010906A1C8
:1009100001050719E029E7150025019508750181F2
:10092000029501750881010507190029FF150026A8
:10093000FF00950675088100050819012905950530
:1009400075019102950175039101C00011241FBE2C
:10095000CFEFDAE0DEBFCDBF04B603FE27C0809143
:100960002B0390912C03A0912D03B0912E0387307F
:10097000904BA740B04BD1F410922B0310922C0354
:1009800010922D0310922E0314BE84B7877F84BF6C
:100990000FB6F894A89580916000886180936000FC
:1009A000109260000FBEE0E0F8E3099511E0A0E0CE
:1009B000B1E0E2EFF2E602C005900D92A43EB1076D
:1009C000D9F723E0A4EEB1E001C01D92AB32B2072B
:1009D000E1F70E948C160C9477310C940000CF93B1
:1009E000C82F0E942C07882311F0589801C0589AEC
:1009F0008C2FCF9108959C013A9521153F4130F5F8
:100A0000BC0166277270AC01442754709C012227F8
:100A1000387094FF0FC090FF02C080E101C080E0F9
:100A2000672B09F08062452B09F08064232B79F055
:100A300080680895892F8170672B09F08260452BAB
:100A400009F08460232B19F08860089580E00895F0
:100A5000CF93DF93EC01805E9109089710F0209707
:100A600031F4CE010E94FB040E94600805C0CE0153
:100A70000E94FB040E94C60A8C2FDF91CF910C9438
:100A8000C607CF93DF93EC010E941408CE01805E6D
:100A90009109089710F0209739F4CE010E94FB04C9
:100AA000DF91CF910C946708CE010E94FB04DF9187
:100AB000CF910C94CD0A81E0089581E008950C94C3
:100AC0005D0508950C9461051F93CF93DF9300D0CB
:100AD00000D01F92CDB7DEB749835A836B83309124
:100AE000E60189819A81311114C0662359F02223CD
:100AF00049F00E94F80B182F682F89819A810E9473
:100B00009B0B03C00E94C80B182F69817A81812F2B
:100B100004C00E94F80B69817A810F900F900F90AA
:100B20000F900F90DF91CF911F910C94B923FC018E
:100B3000262F408151816281738184810C946405E8
:100B400081E00895CF93DF93EC0160E00E94970568
:100B5000BE01DF91CF910C946205E1E0F0E0DF018E
:100B600002C0AA0FBB1F6A95E2F7BD01DF0102C0F8
:100B7000AA0FBB1F4A95E2F7AD01462B01C0EE0F4D
:100B80002A95EAF7942F9823491302C08E2B0895D3
:100B9000E0958E230895242F462F682F809102021E
:100BA0000E94AD050C94580B0E940F150E94580727
:100BB0000C9442150C943E1508950E94EA0A0E9476
:100BC000DC052FEF84E39CE0215080409040E1F76A
:100BD00000C000000C94D8280F931F93CF93DF938D
:100BE000EC018B010E94BF1E882309F452C0B8019A
:100BF000CE010E944122882309F44BC0B801CE01E6
:100C00000E945F05882309F444C0B801CE010E9408
:100C10003F258823F1F1B801CE010E949125882358
:100C2000C1F1B801CE010E94BC26882391F1B80120
:100C3000CE010E940B1D882361F1F8018281882377
:100C400009F1CA358DE5D807C1F050F4C115FCE5AE
:100C5000DF0781F0CE3DDC45A9F40E94DC1119C00C
:100C6000CB35EDE5DE0761F0CC35DD4559F40E946A
:100C70002A1008C00E94DD050CC00E94331002C07B
:100C80000E943610C801DF91CF911F910F910C94F3
:100C90005B0580E0DF91CF911F910F910895CF9375
:100CA000DF93EC0161E00E949705BE01DF91CF91D7
:100CB0000C94EC05DF92EF92FF920F931F93CF936A
:100CC000DF93E82FF0E0E05DFD4FD490282F2695CC
:100CD0002695269530E0F901E053FD4F0491877089
:100CE00010E0082E02C0159507950A94E2F70170EE
:100CF0001127F901E054FD4FE490F12C082E02C0B9
:100D0000F594E7940A94E2F791E0E922FF24F901CF
:100D1000E055FD4FC491D0E002C0D595C7958A95A6
:100D2000E2F7C170DD270115110519F081EE0E946F
:100D3000C607E114F10419F086EE0E94C6078D2D56
:100D40000E945708EF2819F086EE0E941408012B24
:100D500019F081EE0E941408CD2B51F08CE2DF9146
:100D6000CF911F910F91FF90EF90DF900C94570857
:100D7000DF91CF911F910F91FF90EF90DF90089539
:100D8000EF92FF920F931F93CF93DF93EC01162FF7
:100D90000AE08881882309F455C0813009F043C0F6
:100DA0008981813041F47E0182E0E80EF11C8A8164
:100DB0000E94570809C0823049F47E01E2E0EE0E3D
:100DC000F11C8A810E94C607E7012FC0833041F4DD
:100DD0007E01F2E0EF0EF11C8A810E941408F4CF2C
:100DE000843011F0219621C02A81229680E090E083
:100DF00030E0205331092A30310558F4089FA00112
:100E0000099F500D1124C901840F951F2196288137
:100E1000EFCF009751F0EFE9FFE03197F1F700C015
:100E200000000197F6CF0E945A062196812F882351
:100E300009F4AFCFEFE9FFE03197F1F700C0000010
:100E40008150F5CFDF91CF911F910F91FF90EF90DF
:100E5000089560E00C94C006982F92959F7019F049
:100E6000892F24E001C020E0982F9695969511F0E7
:100E70002E5F892F982F969509F02F5F822F089566
:100E800008950C94400781E00895CF93C82F0E94E5
:100E90004307882359F0C095C0FF02C0599A01C08A
:100EA0005998C1FF02C05D9A01C05D98CF91089525
:100EB000519A599A559A5D9A0895CF93C82F0E94D6
:100EC00041078C2F0E944507CF9108950F931F93E0
:100ED000CF93DF93CDB7DEB72B970FB6F894DEBF75
:100EE0000FBECDBF4F83588769877A878B87611183
:100EF0000E9459108E010F5F1F4F86E0F80111927A
:100F00008A95E9F785E0FE013796D80101900D92A8
:100F10008A95E1F70E94FB0F882319F082E00E9476
:100F200012110E94E20F81110E948C1099818A8116
:100F30002C813D81232B31F08F3F31F481E09F3FA5
:100F400019F403C081E001C080E080FF09C049813D
:100F50005A816B817C818D819E810E94310F05C0F9
:100F6000C8010E94A0058111F2CF2B960FB6F8940C
:100F7000DEBF0FBECDBFDF91CF911F910F910895BE
:100F8000FC01808191810E94250C0895CF938823D4
:100F900009F448C0C82F8CEF8C0F813AD0F46C2F25
:100FA00080910001909101010E945A27882349F005
:100FB0006C2F80910001909101010E94E5270E9411
:100FC0009A106C2F80910001909101010E94DA2704
:100FD0000CC080E28C0F883058F4C77081E001C0EB
:100FE000880FCA95EAF70E943C10CF910C949A1092
:100FF000EBE5EC0FE33040F4F0E0E85AFE4F80817F
:1010000090E0CF910C941827C85AC73158F4EC2FB0
:10101000F0E0EE0FFF1FE65DFE4F80819181CF91E2
:101020000C942E27CF910895882349F1682F8CEFD7
:10103000860F813A38F480910001909101010E945D
:10104000E5270CC080E2860F883050F4677081E09D
:1010500001C0880F6A95EAF70E9442100C949A101A
:101060008BE5860F833020F480E090E00C94182705
:10107000685A673120F480E090E00C942E270895A0
:101080001F93CF93DF93182FEB010E94C607209781
:1010900041F08FE99FE00197F1F700C00000219730
:1010A000F6CF812FDF91CF911F910C9414088933D3
:1010B00019F06AE070E002C060E570E00C9440084E
:1010C000882321F00E943C100C949A1008958823E4
:1010D00021F00E9442100C949A100895CF92DF9252
:1010E000EF92FF920F931F93CF93DF937C01162F04
:1010F000C72FFC010281D581D295DF700E941110AB
:10110000882399F0002389F08C2F807F803421F090
:1011100080E2810F883048F082E00E9412110E9424
:10112000111091E0D82ED92601C0D12CCC2EC2941A
:101130008FE0C8228C2D90E0FC01EA5AFF4F0C94FE
:10114000BB308C2F807FCF70882311F0C295C07F79
:10115000002399F0CC2309F478C180E2810F883014
:1011600010F0111104C08C2F0E943C1003C08C2F72
:101170000E944C100E949A1068C1812F0E9414088E
:10118000CC2309F48DC180E2810F883010F0111159
:1011900004C08C2F0E94421003C08C2F0E9452105A
:1011A0000E949A107DC18C2F807FCF70803211F009
:1011B000C295C07F112319F0113059F134C00023BA
:1011C000B1F0DD2381F0D13031F40E946C108C2B12
:1011D0000E94741065C1D53031F40E948C108C2FA0
:1011E0000E94D8102AC00E946C108C2B27C0DD23CF
:1011F00069F0D13041F40E9439108C2309F450C1B8
:101200000E94E11003C0D53009F44AC10E948C103D
:101210001AC0002321F0D63008F042C10EC0D530EC
:1012200008F03EC110C0002361F0DD2331F0F7016A
:10123000858180FF0AC18F7085838C2F0E94600892
:101240002FC1D11109C18C2F0E94670829C18C2F91
:1012500086958695837019F0813061F021C1002355
:1012600021F0812F9C2F937002C080E090E00E94BB
:1012700018271EC1002321F0812F9C2F937002C0DC
:1012800080E090E00E942E2713C18C2F837079F5A7
:1012900001110AC1412F429546954770440F440FF2
:1012A000212F2F70042E01C0220F0A94EAF714FF99
:1012B00008C08FE090E001C0880F4A95EAF780955A
:1012C00001C080E0C695C695C370822BC23049F03C
:1012D00058F4C13019F00E944C0BE6C00E94470B35
:1012E000E3C00E94510BE0C00E94450BDDC000230B
:1012F00019F08C2F817001C08695882309F4D4C021
:10130000412F429546954770440F440F212F2F706F
:10131000042E01C0220F0A94EAF714FF08C08FE0E0
:1013200090E001C0880F4A95EAF7809501C080E0FF
:10133000C695C695C370822BC23049F058F4C130AF
:1013400019F00E94900BB0C00E948B0BADC00E94A0
:10135000950BAAC00E94580BA7C0CF70002339F08C
:101360008C2F0E94690B812F0E9460089DC0812FE5
:101370000E9467088C2F0E94740B96C0123F01F1E7
:1013800028F4103F41F0113FA1F05AC0133FF9F08B
:10139000143F39F155C0002341F0D53008F080C02A
:1013A0008C2F8F710E94800B7BC0D63008F078C0E4
:1013B000F7CF002339F08C2F8F710E94690B70C01A
:1013C0000023C9F38C2F8F710E94740B69C0002316
:1013D00029F08C2F8F710E94610B62C00E945E0BFE
:1013E0005FC00023C9F00E94DF0F0E9442100E94DC
:1013F000F70F843039F40E9409118C2F8F710E94ED
:10140000740B71C0D53008F06EC0CF718C2F0E9464
:10141000690B63E08C2F0DC00E94DF0F0E943C100F
:10142000D53050F00E9409110E94E11064E08C2F29
:101430008F710E94ED1057C081E00E94121153C0BD
:10144000002339F0DD2309F4B6CF812F0E94C607AF
:1014500027C0DD2309F4B6CF193341F4FFEF27EE9F
:1014600083E0F15020408040E1F704C0EFE3FCE965
:101470003197F1F700C00000812F0E94140810C0BE
:101480004C2F4F70612FC7010E94F8120E94530C1D
:101490000FC04C2F4F70612FC7010E94FB1208C074
:1014A00088EF8C0D843020F40E94F2260E945D07A4
:1014B000DD20D9F00E94F70F80FD17C0F7011282DE
:1014C0000E94F10F0E94690BC7010E94960A0E94B8
:1014D000F10FDF91CF911F910F91FF90EF90DF906F
:1014E000CF900C94740BD12CDFCFDF91CF911F9153
:1014F0000F91FF90EF90DF90CF9008950F931F937F
:10150000CF93DF93EC01688179818A810E94300C4E
:101510008C010E949A0B0E94390BB801CE010E94E7
:101520006E08DF91CF911F910F910895CF93DF93B4
:10153000EC01988189812B813C81232B31F08F3FF5
:1015400031F481E09F3F19F403C081E001C080E0E5
:1015500080FD19C0CE010E944F0681110CC00E946F
:101560001110882381F08A81882369F082E0DF915D
:10157000CF910C941211CE010E947E0ACE01DF9110
:10158000CF910C94A205DF91CF910895882321F08B
:101590000E944C100C949A100895882321F00E9408
:1015A00052100C949A10089580E090E00E94182741
:1015B00080E090E00E942E270E9459100E9469103E
:1015C0000C949A1080910001909101010E94F027E3
:1015D0000C94D40A0E9449100C94E20AE92FE29577
:1015E000EF704E2F50E0FA013297EE30F105B0F473
:1015F000EA59FF4F0C94BB30803F91F018F4883EBD
:1016000068F40EC0843F51F40BC0883E48F0813F1F
:1016100029F406C093FB882780F9089580E0089597
:1016200081E00895FC01808191810E94250C0E9437
:10163000EE0A0895CF93DF9300D000D01F92CDB76C
:10164000DEB70F900F900F900F900F90DF91CF911A
:101650000895CF93DF9300D000D000D0CDB7DEB790
:1016600026960FB6F894DEBF0FBECDBFDF91CF91A7
:101670000895089508950C943A0B0C943B0B0E9426
:101680003D0B809303020C94D40A0C943F0B909171
:101690000302892B0C943F0B9091030289230C9435
:1016A0003F0B9091030289270C943F0B0C94EF049D
:1016B0000E94560B809302020C94D40A80E00C9492
:1016C000580B91E001C0990F8A95EAF7892F0C9485
:1016D000580B21E030E001C0220F8A95EAF7809193
:1016E0000202822B0C94580B21E030E001C0220F43
:1016F0008A95EAF720958091020282230C94580B78
:1017000021E030E001C0220F8A95EAF780910202C1
:1017100082270C94580B90910202892B0C94580B41
:101720009091020289230C94580B90910202892710
:101730000C94580B08959E3F51F12EE0929F800D1E
:101740001124E82FE695E695E695877051E001C0F3
:10175000550F8A95EAF783E0E89FF0011124E951DB
:10176000FE4F20E030E070E04081CB01022E02C04D
:10177000969587950A94E2F7817081958427852351
:10178000842781932F5F3F4F2330310569F70895F8
:101790009E3F61F12EE0929F800D1124682F669587
:1017A00066956695982F977083E0689FB001112425
:1017B00040E050E080E0FB01E40FF51FE951FE4FEF
:1017C000208130E0092E02C0369527950A94E2F771
:1017D00021703327042E01C0220F0A94EAF7822BCE
:1017E0004F5F5F4F4330510531F7089580E0089512
:1017F000CF92DF92FF920F931F93CF93DF936C01F1
:101800000091020280910302082BC7E0D0E010E0B3
:10181000C8010C2E02C0959587950A94E2F780FDC9
:1018200004C02197A8F7F12C07C0FC2EB6018C2F1D
:101830000E9419140197A9F38F2DDF91CF911F9169
:101840000F91FF90DF90CF900895CF93DF93EC013D
:101850000E94F80BBE010E941914DF91CF910895E8
:101860001F93CF93DF93EB019091E601992321F031
:10187000CB010E94250C13C0882349F0CB010E94A4
:10188000F80B182F682FCE010E949B0B04C0CB01D0
:101890000E94C80B182FBE01812F0E941914DF91DE
:1018A000CF911F910895EF92FF920F931F93CF93C3
:1018B000DF938C01892B09F46CC0F12CEE24E394A6
:1018C000E8012196F8018491843740F4843008F0CF
:1018D00051C0813081F0823019F15BC0853709F445
:1018E00044C0A8F19CE7980F903708F052C08F775A
:1018F0000E94140841C00E5F1F4FFE01849190E2C8
:10190000980F983050F48770FE2D01C0FF0F8A9514
:10191000EAF78F2F0E945C1014C00E94C6072DC0EA
:101920000E5F1F4FFE01849190E2980F983060F493
:101930008770FE2D01C0FF0F8A95EAF78F2F0E9456
:1019400062100E949A1019C00E94140816C00E5FFF
:101950001F4FFE01C491CC2381F08FE99FE00197D6
:10196000F1F700C00000C150F6CF0E5F1F4FFE011F
:10197000F49003C00E94C6078E018F2D882309F4BE
:101980009FCFEFE9FFE03197F1F700C000008150F1
:10199000F5CFDF91CF911F910F91FF90EF900895B8
:1019A0001F93CF93DF93C091040216E0809105024C
:1019B000C81799F0D0E01C9FF0011D9FF00D112475
:1019C000EA5FFD4F408151816281738184819581FD
:1019D0000E94290B2196C770E9CFDF91CF911F910B
:1019E000089540913602509137026091380270910B
:1019F000390280913A0290913B020C94290B0F938B
:101A00001F93CF93DF9380913B0282958F7009F0F3
:101A10005DC080913802882309F458C08091040287
:101A2000109105026091360270913702C09139021F
:101A3000D0913A0291E06F3F09F090E0292F06E043
:101A4000811709F443C0209721F07F3F21F030E057
:101A500003C031E001C0322F90E030FD34C0089F58
:101A6000F001099FF00D1124DF01AA5FBD4F11960F
:101A70003C911197371327C03C91361324C012961E
:101A80003C91129731111FC013964D915C911497A0
:101A90004C1B5D0B483C5105B0F480913B028F70AC
:101AA000806180933B02E55FFD4F80818F70806194
:101AB000808386E392E00E94960ADF91CF911F9186
:101AC0000F910C94D00C01968770BACFDF91CF9113
:101AD0001F910F9108959F92AF92BF92CF92DF9284
:101AE000EF92FF920F931F93CF93DF93CDB7DEB7A3
:101AF00061970FB6F894DEBF0FBECDBF8C0185E0B5
:101B0000F801DE011D9601900D928A95E1F7F8012A
:101B1000E280909136026091370220913902309133
:101B20003A022115310531F06F3F31F481E09F3FDA
:101B300019F403C081E001C080E0F82FF1709F2EFE
:101B400080FD3FC1F80140815181A380B48086E3CC
:101B5000C82E82E0D82EF0903802F501E21BF30B7C
:101B6000FF2009F4D9C080913B02E83CF10508F060
:101B700095C0282F207F09F052C0561313C0491377
:101B800011C0FE2CE1100EC08F70806180933B026B
:101B90000E94F10CC6010E94960A80913B02F80156
:101BA00085834CC1AB2831F05F3F31F481E04F3F7A
:101BB00019F403C081E001C080E080FD03C081E032
:101BC0008E2502C080E090E0F82FF170FF2E80FF9C
:101BD0001CC0809104022091050236E0821709F4AE
:101BE0000BC190E0389FF001399FF00D1124EA5F9E
:101BF000FD4F6181561306C06081461303C06281A8
:101C0000E61203C001968770E9CFFE2CEE2009F49E
:101C100015C180913B02816080933B0254C05613F2
:101C200006C0491304C0E11002C0F80199C0C80100
:101C30000E94120B882361F1EE2051F120913B02AA
:101C4000822F82958F7090E0029774F08091360217
:101C50009091370298878F831986BB86AA862C8736
:101C6000CE0107960E94960A86E0F801A6E3B2E04C
:101C700001900D928A95E1F70E94FF0C0E94F10CF1
:101C80000AC0561711F1C8010E94120B81112CC015
:101C9000C8010E94960AFF24F394D0C0282F207F09
:101CA00081F77A2DB98AA88A6E2D89890E941A0B2C
:101CB00086E392E00E94960A86E0F60111928A95E8
:101CC000E9F70E94F10CF12CB9C04913DCCFE11007
:101CD000DACFF8018583C8010E94960A86E0F601F2
:101CE00011928A95E9F7AAC0EE2091F220913B0269
:101CF000822F82958F7090E002970CF4B5CF80917F
:101D00003602909137029A8389831B82BD82AC820E
:101D10002E83CE010196A6CFE83CF10508F044C021
:101D2000FE2CEE2009F4B4CF561330C049132EC058
:101D300020913B0220FD21C0822F82958F70482F79
:101D400050E041155105C9F0F80125834F30510588
:101D500041F08F5F982F9295907F822F8F70892B03
:101D60008583C8010E94960A86E0F801A6E3B2E0E6
:101D700001900D928A95E1F73CC086E0F801A6E358
:101D8000B2E001900D928A95E1F758C0C8010E9417
:101D9000120B811169CF80913B02816080933B02DD
:101DA000C8010E94960A4AC07A2DB98AA88A6E2D67
:101DB00089890E941A0B86E0F60111928A95E9F74B
:101DC00018C0EE2009F464CFC8010E94120BF82E4F
:101DD000882309F45DCF86E0F801A6E3B2E0019024
:101DE0000D928A95E1F786E392E00E94C0070E9477
:101DF000FF0C0E94F10C22C04D875E878D859E8569
:101E00000E94250C292F22952F70223028F49F70D4
:101E100039F0811105C00BC0243028F49F7049F4BB
:101E2000805E883020F0C8010E94960A9F2CF92C11
:101E300005C0F8019581907F99F7F9CF8F2D6196B4
:101E40000FB6F894DEBF0FBECDBFDF91CF911F91CB
:101E50000F91FF90EF90DF90CF90BF90AF909F9049
:101E600008951F93CF93DF93CDB7DEB72C970FB6AE
:101E7000F894DEBF0FBECDBF4F83588769877A873E
:101E80008B879C87CE0107960E946B0D8823D1F02B
:101E90009F8188852A853B85232B31F08F3F31F444
:101EA00081E09F3F19F403C081E001C080E080FD24
:101EB00047C04F81588569857A858B859C850E94AE
:101EC000290B3EC086E0FE013796DE011196019097
:101ED0000D928A95E1F7FF81E8856A857B8561151A
:101EE000710531F0EF3F31F481E0FF3F19F403C099
:101EF00081E001C080E080FD23C02091050230E038
:101F0000C9010196877099274091040250E0841717
:101F10009507F1F1F983EA837D836C8396E0929FC4
:101F2000D001939FB00D1124AA5FBD4FFE013196E1
:101F300001900D929A95E1F7809305020E94D00CD2
:101F400016E08091040290910502891771F1189FA3
:101F5000C00111248A5F9D4F0E946B0D882329F1D7
:101F6000E09104021E9FF0011124EA5FFD4F4081C1
:101F7000518162817381848195810E94290B8091B6
:101F8000040290E001968770992780930402D9CFCC
:101F90000E94EA0A1092050210920402E6E3F2E0BF
:101FA00086E0DF011D928A95E9F72C960FB6F8942A
:101FB000DEBF0FBECDBFDF91CF911F9108958091FD
:101FC000410208950E948B2820913F0230914002E7
:101FD000821B930B9C0181E02838334108F480E098
:101FE000089580913E028595859585950895809107
:101FF0003E02877008950E948B2820913C02309108
:102000003D02821B930B8838934140F080913E0241
:1020100082FB882780F991E0892701C080E08170E8
:10202000089590913E02977081E009F480E0089550
:102030009091C50292FB222720F9281751F080FBCE
:1020400092F99093C5028091C4029091C5020C94BC
:10205000591108958091C50282FB882780F991E08B
:1020600089270C94181081E00C94181080E00C94CF
:10207000181080916502089590916502892B8093D4
:102080006502089580959091650289238093650289
:10209000089510926502089590916402892B8093AF
:1020A000640208958095909164028923809364026C
:1020B000089510926402089590916302892B809391
:1020C000630208958095909163028923809363024F
:1020D0000895109263020895809142020895089530
:1020E0000C946F100C947010CF939091C50292FDD8
:1020F00011C090914202981769F0C82F0E948B2856
:102100009093400280933F02C09342028C2FCF9164
:102110000C947210CF91089580914202882349F067
:10212000109242021092400210923F0280E00C9402
:1021300072100895E0910001F09101018091650213
:102140008083E0910001F09101019081809164020F
:10215000892B8083E0910001F091010190818091B1
:102160006302892B8083809142028823B9F00E9408
:10217000E20F81110E948C10E0910001F0910101A9
:10218000908180914202892B8083809100019091FF
:1021900001010E94442781110E948C10809100014E
:1021A000909101010C94FE260C946F100C94D410A5
:1021B00090914102981721F0809341020C94D6101F
:1021C000089580914102882329F01092410280E015
:1021D0000C94D61008950C946F109091C50292FD46
:1021E00016C098E0899F90011124262B20933E026F
:1021F0000E94690B0E948B2890933D0280933C02C1
:1022000080913E028595859585950C94EB100C94F4
:10221000690B10923E0210923D0210923C0280E047
:102220000C94EB1020913E028095822380933E0215
:10223000982F977041F430E0482F082E000C550B72
:102240002417350721F49091C50292FF07C08595A8
:10225000859585950E94740B0C94091108956FEF74
:102260007FEF80E090E00C94613180E090E00E948C
:102270003D318A3E9E4F11F40C94621E80E0089519
:1022800082E090E00C942F3183E090E00C942F31A9
:10229000CF9384E090E00E942F31C82F82E290E03B
:1022A0000E942F312C2F30E0A901582BCA01CF9169
:1022B0000895CF93C92F682F84E090E00E944331A6
:1022C0006C2F82E290E0CF910C944331AB01BC01C2
:1022D0008FE090E00C945531AB01BC0183E190E0BC
:1022E0000C94553160E070E0CB010C946C1160E00F
:1022F00070E0CB010E9466110C9472116AEE7EEFC1
:1023000080E090E00E94613160E082E090E00E9415
:10231000433160E083E090E00E9443311092030279
:1023200060E084E090E00E94433160E082E290E06F
:102330000E94433160E085E090E00E94433160E01C
:1023400086E090E00E9443316FEF87E090E00E94CA
:10235000433140E050E0BA0188E090E00E945531FE
:1023600060E08DE090E00E94433140E050E0BA012F
:1023700088E190E00E94553160E087E190E00E94A2
:10238000433140E050E0BA018CE190E00E945531C9
:1023900060E070E080E290E00E94613140E050E057
:1023A000BA0188E190E00E94553180E00E947B1ED6
:1023B0000E94A71E0C9477110C947E11682F8EE05A
:1023C00090E00C9443310E949728609379027093B7
:1023D0007A0280937B0290937C02609375027093E3
:1023E0007602809377029093780208950E9497284E
:1023F0006093790270937A0280937B0290937C02BF
:1024000060937102709372028093730290937402CE
:10241000089585B7806885BF85B7806885BF0895B2
:1024200081E008950C94101208950C9414120C94E9
:1024300014120C9417120C9414120C941B120C947A
:1024400014120E94091285EF94E10E94FC280E9458
:10245000C7200E941F120C941D120E9415120C948A
:1024600014120E9482280E94B61E0E94F3150E9438
:10247000221C0E94021E0C9419126F927F928F925E
:102480009F92AF92BF92CF92DF92EF92FF920F9303
:102490001F93CF93DF93CDB7DEB72A970FB6F8948B
:1024A000DEBF0FBECDBF0E94061681110E94E31150
:1024B00037E6832E32E0932E00E010E0C02E802F0E
:1024C0000E9429155C01F401619071904F0168260A
:1024D000792661147104B1F40F5F1F4F05301105A7
:1024E00069F78FEF89838A831B820E948B28816022
:1024F000782F9D838C8349815A816B818D810E94C5
:1025000066073AC080917D0281FD0E943215D12C70
:10251000EE24E394F12CC3018E219F21892B29F114
:102520000E9412128823A9F0DE82CF82AE20BF2043
:1025300081E0AB2809F480E088870E948B288160C5
:10254000782F9A8789874E815F8168858A850E9466
:102550006607000F111FF801E959FD4F8081918135
:10256000E826F926F182E08207C0D394EE0CFF1C26
:10257000FEE0DF12D0CFB0CF0E945D1C0E94151E7E
:1025800081110E94F6110E94F2269091660289172D
:10259000D1F00E94F226809366022A960FB6F89434
:1025A000DEBF0FBECDBFDF91CF911F910F91FF9086
:1025B000EF90DF90CF90BF90AF909F908F907F90E3
:1025C0006F900C945D072A960FB6F894DEBF0FBE8D
:1025D000CDBFDF91CF911F910F91FF90EF90DF90D2
:1025E000CF90BF90AF909F908F907F906F90089505
:1025F00080E090E008950895880F991FFC01E05253
:10260000FD4F859194910895CF93DF930E941E14FE
:10261000EC01811520E5920708F041C0811540E4E6
:10262000940708F0CBC0803E910520F5803C9105D1
:1026300008F0B8C0883A910570F4853A910508F021
:10264000A8C08130910509F4A1C008F4EBC004973B
:1026500008F0EBC0E7C08F3B910508F0E3C0885A53
:10266000C82FD0E0CC0FDD1FC55ADE4F888199817D
:102670009464DCC0811550E2950750F4C11581E0E7
:10268000D80708F0D2C0C83ED10508F4CEC0CAC0F1
:10269000811520E3920708F08AC09F7085C08115DC
:1026A00045E5940708F046C0811554E5950708F004
:1026B0009DC0C11582E5D80718F5C11521E5D207DF
:1026C00008F07FC0CE01F4E096958795FA95E1F782
:1026D000282F23703C2F337081E090E002C0880FD8
:1026E000991F3A95E2F79C68922B2C2F2F70269514
:1026F000269540E2249F90011124822B932B96C0B3
:102700009E01237033279C2F96959695C115D3452E
:1027100008F05CC041E050E002C0440F551F2A950C
:10272000E2F780E2989F90011124CA01822B932B3B
:102730009C687CC0811559E5950798F4C11588E51A
:10274000D80708F058C0C11526E5D20708F06AC0BE
:102750008C2F0E94B2148F7190E0982F882790627E
:1027600065C081154AE5940708F44AC09056811562
:10277000904208F057C08D2F8F710E94B2149E01B5
:10278000332730628F71A901582B4AC081E090E055
:102790004DC0855AC82FD0E0C757DE4F888190E0E2
:1027A000906444C0805C91090E94FC123FC099274C
:1027B000D3FF02C0986C3AC0906C38C09F70906A8A
:1027C00035C09C2F8827816F906A30C041E050E06F
:1027D00002C0440F551F2A95E2F780E2989F9001AE
:1027E0001124CA01822B932B9A6820C0982F882726
:1027F000846F906A1BC09C2F8827806F906A16C0D8
:102800008F700E94B2149E0194E0369527959A9598
:10281000E1F72F7030E0322F22273069A901482BD1
:10282000CA0104C080E090E001C0CE01DF91CF91E9
:1028300008950E94B9230E940413089582389105D7
:1028400069F1B0F48133910509F46DC048F489321F
:10285000910509F463C08A32910509F469C00895AD
:102860008533910509F455C089339105B9F0089570
:10287000833E910569F138F4803E9105B1F0823EC6
:10288000910509F10895863E9105A9F1873E9105CC
:10289000B9F1843E910509F064C023C02091C402BF
:1028A00020FD4FC021FD4DC008958091C40280FDE0
:1028B00044C08091C50280FF44C08091C40284FD61
:1028C00042C083EE4DC08091C40282FF38C0F5CF74
:1028D0008091C40282FD33C08091C50280FD31C069
:1028E000ECCF8091C50281FF32C08091C40284FD8B
:1028F0002AC087EE35C08091C40283FF26C0F5CF81
:102900008091C40283FD21C08091C50281FD1FC05A
:10291000ECCF8091C40285FD1CC01DC08091C40213
:1029200085FD19C016C08091C40286FD16C017C06F
:102930008091C40286FD13C010C089E311C082EEED
:102940000FC080EE0DC080E00BC086EE09C084EEA3
:1029500007C089E205C085E303C08AE201C081E3C4
:1029600090E008959091C40292FF0DC0282F287125
:10297000283019F4877F846006C0282F2471243002
:1029800011F48B7F886093FF0DC0282F28712831A8
:1029900019F4877E846106C0282F2471243111F434
:1029A0008B7E88612091C50220FF0DC0382F3871C1
:1029B000383019F4877F816006C0382F317131308B
:1029C00011F48E7F886021FF0DC0282F28712831D7
:1029D00019F4877E816106C0282F2171213111F4FD
:1029E0008E7E886194FD877E089580E008950C9422
:1029F0002F110E9406168FE39CE90197F1F700C0A2
:102A000000000E94061680E00E94291580FF04C085
:102A10000E94F7140C94D82808950C94F9140E947D
:102A20003511811102C00E94DC110E944011809377
:102A30007D020E9448119093C5028093C4020E94B7
:102A40000D150E9444110E94450B809102020C94C6
:102A5000560BE82FF0E0EE0FFF1FE053FD4F808193
:102A600091810895089580EA8A95F1F7089500C04C
:102A700008950C94331508950C943B150C943C1553
:102A80000C943B150C944015F894E82FE295EF70E8
:102A9000F0E031A1282F2F7081E090E001C0880F75
:102AA0002A95EAF7982F9095932391A392A1892BC9
:102AB00082A3789408950F931F93CF93DF93CAE96D
:102AC000D1E089918F3F11F00E94441581E0CF3908
:102AD000D807B9F7CCE8D1E00AE911E089918F3F36
:102AE00011F00E9444150C171D07C1F7DF91CF911B
:102AF0001F910F910895AF92BF92CF92DF92EF9204
:102B0000FF920F931F93CF93DF938C01C62FD0E0DA
:102B1000CE0186569E4F6C01DC019C919F3F09F4CB
:102B200057C0B62EF894E92FE295EF70F0E081A13E
:102B30009F7021E030E001C0220F9A95EAF7822BC6
:102B400081A382A12095282322A378940E9437157F
:102B5000ECE8F1E020E030E0E12CF12C41E050E045
:102B600081918F3FC1F0A82FA295AF70B0E09096F1
:102B70006C9170E08F70DB0102C0B595A7958A95C6
:102B8000E2F7A0FD08C0CA01022E02C0880F991FFB
:102B90000A94E2F702C080E090E0E82AF92A2F5F69
:102BA0003F4F2E303105E1F6F60180818F3F11F065
:102BB0000E94441561E0E114F10409F460E08B2DFA
:102BC0000E943915CC0FDD1FC00FD11FF982E8829A
:102BD000DF91CF911F910F91FF90EF90DF90CF90F9
:102BE000BF90AF9008950E945B15E6ECF2E0A0ED77
:102BF000B2E0119211921D921D9282E0E03DF80721
:102C0000C1F785E00E9451160C94D405FF920F93F2
:102C10001F93CF93DF93CDB7DEB72A970FB6F89403
:102C2000DEBF0FBECDBF8E010F5F1F4F8AE0F801E0
:102C300011928A95E9F7F12C6F2DC8010E947B153E
:102C4000F394F5E0FF12F8CF4AE050E0B80186ECCB
:102C500092E00E941B31FF24F394009709F4F12CB9
:102C6000892B41F08AE0F801A6ECB2E001900D92C8
:102C70008A95E1F72F2D45E060ED72E086EC92E059
:102C80000E9452160E94DA058F2D2A960FB6F894EC
:102C9000DEBF0FBECDBFDF91CF911F910F91FF908F
:102CA00008950895FF920F931F93CF93DF93F82E0B
:102CB000092F162FD72FC42F222349F081E08093AC
:102CC00080020E948B2890937F0280937E028091E5
:102CD00080028823D9F080917E0290917F020E9429
:102CE000A328059798F0EF2DF02FA12FBD2F80E09E
:102CF00090E04C2F50E08417950734F421913191E6
:102D00002D933D930196F7CF10928002DF91CF91E2
:102D10001F910F91FF9008950E9402280E94872A18
:102D20000E94A02A0E94B22A0E942D12FBCFEF928D
:102D3000FF920F931F93CF93DF938B01682F111195
:102D40000AC0442329F0E82FF0E0E950FC4F6491D9
:102D5000762F862F75C0212F30E0E82FF0E0442336
:102D600021F0E950FC4FE491F0E046E0049FC001FF
:102D70001124CFEFD0E0BE010E9471304BEA460330
:102D8000C001479F900D1124800F911D800F911D50
:102D9000982F990F890FAE01421B530B4E9FD00104
:102DA0004F9FB00D5E9FB00D11249B2F189FA00167
:102DB0001124452F55278E01041B150B0E9FA001D2
:102DC0000F9F500D1E9F500D11247E01E81AF1082F
:102DD000E29E8001E39E100DF29E100D1124212F22
:102DE0003327C21BD30BCE9F9001CF9F300DDE9FA8
:102DF000300D112462307105A9F048F46115710598
:102E000069F061307105C9F48B2F752F0DC06430E6
:102E1000710581F058F06630710579F47E2F8B2FA3
:102E2000932F0DC0832F7B2F9E2F09C08E2F7B2FBA
:102E3000952F05C08E2F732F02C07E2F852F692FEF
:102E4000DF91CF911F910F91FF90EF90089541E096
:102E50000E949716089508950E9427170895CF930A
:102E6000DF93762FE901682F842F0E942C17798336
:102E700068838A83DF91CF9108958091DA02282FA9
:102E8000269530E02115310519F48170826005C066
:102E90002532310524F0817088648093DA02089528
:102EA00088E090E00C943731CF92DF92EF92FF925E
:102EB0006B017C010E943D17B701A60188E090E0FC
:102EC000FF90EF90DF90CF900C9455316091DA0233
:102ED0007091DB028091DC029091DD020C9454171A
:102EE000EAEDF2E083E0808311828FEF82838383B7
:102EF000148260817181828193810C945417809136
:102F0000DA0280FF02C08695089580E008959091CE
:102F1000DE02933018F49F5F9093DE02882351F015
:102F20006091DA027091DB028091DC029091DD0207
:102F30000C945417089581E00C9487179091DE0249
:102F4000992319F091509093DE02882351F06091FB
:102F5000DA027091DB028091DC029091DD020C9428
:102F60005417089581E00C949E178091DE02089515
:102F70008093DE02662351F06091DA027091DB02E9
:102F80008091DC029091DD020C945417089560E06A
:102F90000C94B8178091DB0208958091DC020895AB
:102FA0008091DD02089570E00C94D71D60910601B8
:102FB0008091DA0280FF0AC08091050123E0829FA0
:102FC000C001112481529D4F0C94D31780910701A9
:102FD00090910801891780F7E82FF0E09F01220FF8
:102FE000331FE20FF31FE152FD4F11821082128254
:102FF0008F5FF0CF9091DA0290FF16C09091070199
:1030000020910801921770F4E92FF0E0DF01AA0F78
:10301000BB1FEA0FFB1FE152FD4F81836083428398
:103020009F5FF0CF0C94D6170895CF93DF9300D015
:103030001F92CDB7DEB79091DA0290FF0AC09E01D1
:103040002F5F3F4F0E942F174B8169818A810E9419
:10305000FA170F900F900F90DF91CF910895CF93B3
:10306000DF93EC01EC81F0E0EE50FD4F4491EAED8E
:10307000F2E0628181810E9415188C818F5F8C83C0
:10308000DF91CF910895CF93DF93EC01EAEDF2E069
:10309000438162818C810E9415188C818F5F8C83A3
:1030A000DF91CF9108950F931F93CF93DF9300D0BB
:1030B0001F92CDB7DEB78C018091810281110AC0C9
:1030C0009E012F5F3F4F4FEF6FEF0E942F178A81B6
:1030D00080938102F8018481813051F028F08230A0
:1030E00061F4409181020AC08091810240E007C0F2
:1030F0006091810240E080E003C040E080E060E059
:103100000E94FA17F801848190E0019663E070E074
:103110000E94853084830F900F900F90DF91CF91A4
:103120001F910F910895AF92BF92CF92DF92EF92CD
:10313000FF920F931F93CF93DF9300D01F92CDB7D1
:10314000DEB7182FF62E042FE22E9091DA0290FFB0
:103150006DC0E92FE695AE2FB0E0A156BE4F8C9121
:1031600080938B029E7F923061F49E012F5F3F4FD0
:10317000812F0E942F174B8169818A810E94FA1743
:1031800043C0823019F40091DD023EC0863019F44C
:103190001091DB0239C08930D9F38931A9F5E951A1
:1031A0008E2F8170D82EE695F0E0EE50FC4FA59062
:1031B000B490C12CBB2460910901C61618F52C2DC2
:1031C00030E0A29EC001A39E900DB29E900D1124EE
:1031D00070E00E947130812FD11002C0860F01C0B3
:1031E000861B90910701290F311DA901440F551F1E
:1031F000240F351F21523D4F402F6F2D0E942F1756
:10320000C394D9CF0E94D6171093DB02F092DC0250
:103210000093DD02EE2051F06091DA027091DB0242
:103220008091DC029091DD020E9454170F900F9064
:103230000F90DF91CF911F910F91FF90EF90DF9052
:10324000CF90BF90AF900895EAEDF2E09181282FE2
:103250004381628188E0890F0C94931881E00C947B
:103260002419EAEDF2E09181282F4381628188EFF1
:10327000890F0C94931881E00C943119EAEDF2E077
:10328000628121E1620F08F46FEF282F4381818171
:103290000C94931881E00C943E19EAEDF2E06281FF
:1032A00021E1621B08F460E0282F438181810C94A6
:1032B000931881E00C944D19EAEDF2E0438121E18D
:1032C000420F08F44FEF282F628181810C949318EC
:1032D00081E00C945C19EAEDF2E0438121E1421BAC
:1032E00008F440E0282F628181810C94931881E0DA
:1032F0000C946B1920E00C949318FF920F931F937A
:10330000CF93DF93EC01F12C0FEF10E060910901F6
:10331000F616F0F4809107012F2D30E0280F311DB3
:10332000C901880F991F280F391F21523D4F70E0A6
:10333000C8010E948530962F8C814091DD026091FA
:10334000DC02F99E800D11240E942F17F394DECF2A
:103350000E94D6179A818C8190FF02C08F5F01C0B6
:1033600081508C83DF91CF911F910F91FF90089531
:10337000AF92BF92CF92DF92EF92FF920F931F9383
:10338000CF93DF93FC01828180FF02C00FEF01C069
:1033900001E010E043E1A42E80910901181708F024
:1033A00043C080910701C12ED12CE601C80FD11D69
:1033B000CE01880F991FC80FD91FC152DD4F198246
:1033C00018821A8234E0E32EF12CB12C8091830212
:1033D0008B0D84312CF06A2D0E946330892F05C03B
:1033E00087FF03C090910901890F082E000C990BEB
:1033F000C816D90691F48091DD028E9DA0018F9DA3
:10340000500D112455954795559547959E0160910E
:10341000DC028091DB020E942F17B00EF1E0EF1A60
:10342000F108A1F61F5FB8CF0E94D61780918302E2
:10343000013031F4811102C080910901815007C02F
:1034400090E001966091090170E00E9485308093C0
:103450008302DF91CF911F910F91FF90EF90DF904A
:10346000CF90BF90AF900895CF9380910701909136
:103470000801891770F4E82FF0E09F01220F331F35
:10348000E20FF31FE152FD4F1182108212828F5F13
:10349000F0CFC0E060910901C617C0F5EC2FF0E055
:1034A00070E0CF010E94853020910701820F2091AA
:1034B0008202022E000C330B90E0E217F307CCF0EF
:1034C00020910401022E000C330B2E173F078CF0C5
:1034D0009C01220F331F820F931F9C0121523D4FED
:1034E0004091DD026091DC028091DB020E942F1787
:1034F0000BC0FC01EE0FFF1F8E0F9F1FFC01E1525E
:10350000FD4F118210821282CF5FC4CF0E94D61766
:103510002091030180918202820F80938202909118
:103520000401920F9093040119165CF4082E000C0C
:10353000990B4091090150E04150510984179507BA
:103540001CF0219520930301CF9108958F929F92B3
:10355000AF92BF92CF92DF92EF92FF920F931F93A1
:10356000CF93DF938C01FC014481C42FD0E09E01F6
:10357000DE010E94D0309B01AC010E94E6306B015D
:103580007C01E0E2F0E0EC1BFD0BA5E5B0E09B0167
:10359000AC010E94E6304B015C019F01DF010E94FB
:1035A000C8309B01AC010E94F1309B01AC012C0D95
:1035B0003D1D4E1D5F1DC501B4010E949930C22FF3
:1035C000D22F2A3228F4F3E02F9F900111240DC04E
:1035D00025E530E02C1B3109C901880F991F280F00
:1035E000391F37FF02C02F5F3F4F35952795C22FF8
:1035F000C095F12C85E5E82EED1A80910901F816A9
:10360000C8F4F1FC02C08E2D01C08D2F90910701EE
:103610002F2D30E0290F311DA901440F551F240F14
:10362000351F21523D4F4C2F6091DC020E942F1715
:10363000F394E3CF0E94D617F8018481811102C070
:1036400091E003C0803219F49FEF909302019091B2
:103650000201890FF8018483DF91CF911F910F91AF
:10366000FF90EF90DF90CF90BF90AF909F908F90A2
:1036700008950F931F93CF93DF93EC0100E010E0C8
:1036800080910901282F30E00217130724F590914B
:1036900007019801290F311DA901440F551F240F5F
:1036A000351F21523D4F869590E04C810817190730
:1036B0001CF4442331F002C0411103C04091DD02EB
:1036C00001C040E06091DC028091DB020E942F1774
:1036D0000F5F1F4FD5CF0E94D6178C8190E00196C7
:1036E000817099278C83DF91CF911F910F9108955D
:1036F000EAEDF2E080818E7F80836081718182813A
:1037000093810E94541710928C022FEF80E792E071
:10371000215080409040E1F700C000000C94D61783
:10372000EAEDF2E080818E7F808310928C022FEF91
:1037300080E792E0215080409040E1F700C0000017
:103740000C94D6176091DA02669570E04BE050E079
:103750008AE091E00E940E31892B19F481E0809378
:103760008C020E948B289093850280938402089596
:103770009091DA0290FF35C09170811102C0926081
:1037800006C0853210F0986402C0880F982B909381
:10379000DA02662351F06091DA027091DB028091C7
:1037A000DC029091DD020E9454176091DA02669566
:1037B00070E04BE050E08AE091E00E940E31892BEE
:1037C00019F010928C0202C00E94A21B81E080932B
:1037D00087024091DD026091DC028091DB020C9453
:1037E0007A190895682F9091DA02969581E0890FF1
:1037F000853208F081E00C94B81B81E00C94F21B38
:10380000682F9091DA0296958FEF890F09F484E280
:103810000C94B81B81E00C94001C61E00C94B81B64
:10382000EAEDF2E080818160808386950C940D1C26
:103830008091DA0280FD0C94781B0C94101C60E0DF
:103840000C94B81B80918A0281112EC00E94351100
:10385000811104C00E94DC110E9470170E94501751
:103860006093DA027093DB028093DC029093DD02B6
:103870006E7F61F40E9470170E9450176093DA0205
:103880007093DB028093DC029093DD020E943D176F
:1038900010928C028091DA0280FF03C086950E940C
:1038A0001F1C81E080938A020895EAEDF2E0808196
:1038B0008160808386950C941F1C0F931F93CF9378
:1038C000DF9380918C02882309F485C080918B025C
:1038D000E091DA02E695E81BE0938602823049F433
:1038E000F0E0E251FD4FE491CE2FD0E00FE218E17D
:1038F00049C0863049F4F0E0E551FD4FE491CE2F08
:10390000D0E003E418E13EC0893051F4E695F0E0E0
:10391000E851FD4FE491CE2FD0E00DE719E132C020
:103920008F3051F4E695F0E0EB51FD4FE491CE2F4E
:10393000D0E008EB19E126C0853149F4F0E0EE5102
:10394000FD4FE491CE2FD0E004E31AE11BC0883193
:1039500081F0833239F4E0EEF2E0C591D49103E5D1
:1039600018E110C0843251F4C4EFD1E009E31BE147
:1039700009C0C8E2D0E006EA1AE104C0C0EDD7E011
:103980000BE217E180918702882361F01092870291
:103990000E948B2890938502809384021092890262
:1039A000109288020E948B28E0918402F091850297
:1039B0008E1B9F0B8F3F9F4770F4EC0FFD1FF09302
:1039C0008502E093840284E892E0F801DF91CF91D0
:1039D0001F910F910994DF91CF911F910F9108953D
:1039E000882311F0FA0101C0FB010994CF93DF9302
:1039F000C82FD62F0E947F178C1740F00E947F1788
:103A00008D1720F4DF91CF910C94FD1B8C2FDF914B
:103A1000CF910C940D1C1F93CF93DF93FB01128168
:103A2000112309F4BCC0EC010E9439108272CC3C15
:103A3000FCE5DF0709F497C008F043C0C63CECE59D
:103A4000DE0709F47CC0D8F4C33C9CE5D90709F42F
:103A50006AC038F4C23CDC4509F0A4C00E94181CBE
:103A6000A0C0C43C9CE5D90709F462C0C53CDC4554
:103A700009F098C04BE359E16EE279E15DC0C93CC1
:103A8000FCE5DF0709F465C070F4C73CECE5DE0730
:103A900009F45AC0C83CDC4509F084C04AE459E145
:103AA00069E579E149C0CA3C9CE5D90709F456C0EB
:103AB000CB3CDC4509F076C042EB57E16BE977E19E
:103AC0003BC0C13DFCE5DF0709F45AC098F4CE3C89
:103AD0009CE5D90709F44EC008F44AC0CF3CFCE588
:103AE000DF0709F44AC0C03DDC4509F05BC06EE069
:103AF00089E04EC0C43D9CE5D90709F447C050F4A5
:103B0000C23DFCE5DF07F9F1C33DDC4509F04AC0E1
:103B100088E142C0C53D9CE5D907E9F1CD35DD45D9
:103B200009F43FC03FC04AE05CE16DEF7BE104C0B7
:103B30004DEF5BE16AE07CE10E94F01C32C04EE296
:103B400059E16BE379E1F8CF49E559E16AE479E1BC
:103B5000F3CF47E759E168E679E1EECF48E659E16E
:103B600067E779E1E9CF4BE957E162EB77E1E4CF31
:103B700081E012C065E082E00BC068E086E008C02A
:103B800064E18FE005C067E185E102C062E289E19E
:103B90000E94F61C06C083E20E940D1C02C011E0C8
:103BA00001C010E0812FDF91CF911F910895279AD6
:103BB00025B12F7735B130684FB7F894FC01CB01B0
:103BC000880F991F680F791F6E0F7F1FE617F70781
:103BD00089F0819198E035B9000000C087FF25B9D0
:103BE000880F000000C000C000C025B900C09A9531
:103BF00091F7ECCF4FBF8FE594E00197F1F700C04C
:103C0000000008953F98479A3E98469A86B190E002
:103C1000880F892F881F990B369902C020E001C0B8
:103C200022E0822B80938F02089520918F02220F31
:103C3000220F20938F0286B190E0880F892F881F72
:103C4000990B36B136FBEE27E0F9F0E036FF02C003
:103C5000E2E0F0E0E82BF92BE22BE0938F02EF702B
:103C6000F0E0EC53FE4F908180918E02890F80939B
:103C70008E0284305CF080918D028F5F80938D0284
:103C800060E080E00E94ED2121E001C020E0809111
:103C90008E028D3F54F480918D02815080938D026D
:103CA00061E080E00E94ED2121E080918E02082EEB
:103CB000000C990B64E070E00E94853080938E02C6
:103CC000822F089583E290E00E942F31883E81F494
:103CD00084E290E00E942F318F3451F485E290E02D
:103CE0000E942F3191E08A3409F090E0892F01C0C1
:103CF00080E081700895CF93C82F811102C06FEFCB
:103D000001C068EE83E290E00E944331C11102C01D
:103D10006FEF01C06FE484E290E00E944331C11173
:103D200002C06FEF01C06AE485E290E0CF910C948D
:103D30004331089586E290E00E942F31682F70E0B1
:103D400080E090E0089586E290E00C94433180E0BA
:103D50000E947B1E60E070E0CB010E94A31E0E94C7
:103D6000FC220E94222481E00C947B1E0E94991E5A
:103D70000E94621E811102C00C94A71E0895CF9369
:103D8000FB01C281CC23E9F09C0122513F45203147
:103D9000310520F482510E9432240CC08031FFE5AD
:103DA0009F0751F481E00E94690B43E062E081E0EB
:103DB0000E94CB05C0E018C081319F45A9F482E084
:103DC000F2CF8031EFE59E0711F481E004C081312C
:103DD0009F4549F482E00E94740B43E062E081E079
:103DE0000E94CB0501C0C1E08C2FCF9108952FEF29
:103DF000FC0120830895CF93DF93EC018881813803
:103E000089F028F48038A1F40E94D01710C08238BD
:103E100061F0833869F40E94CA1789830E94CD1724
:103E20008A8306C00E947F1702C00E94B51789834B
:103E3000DF91CF910895CF93DF93EC018881813892
:103E4000B1F058F4803851F5D9810E94CD17C82FB0
:103E50000E94CA174D2F6C2F1DC08238B1F08338D5
:103E6000E9F40E94D017482F6A81898113C08981A3
:103E70000E941F1C8981811104C0DF91CF910C9495
:103E8000901BDF91CF910C94551C8981DF91CF91CC
:103E90000C94C717DF91CF910C947A19DF91CF91D1
:103EA0000895EF92FF920F931F93CF93DF93EC014E
:103EB000162F20919202309193029881232B51F07A
:103EC0009E3F09F0F9C08981833020F0855083300E
:103ED00008F0F2C09E012F5F3F4F993009F492C065
:103EE000E8F4943009F474C050F49230E1F108F031
:103EF00062C0913009F0DCC0198289E089C0963037
:103F000009F479C008F46CC0973009F477C0983090
:103F100009F0CEC0C9010E94FB1ECEC0903109F449
:103F2000A0C088F49D3009F470C030F49C3009F0D2
:103F3000BFC00E94D5239AC09E3009F46BC09F3049
:103F400009F479C0B5C0923109F492C008F48CC06C
:103F5000933109F49DC09E3F09F0AAC0612FCE01A4
:103F60000E94C820A9C08981823041F0833069F065
:103F7000813009F09DC00E94972802C00E949A1EBD
:103F80009A838B837C836D8397C080911501909178
:103F90001601892B09F490C07E0100E0802F0E9459
:103FA0002915F701928383830F5FF2E0EF0EF11C76
:103FB0000530A1F781C08981823009F079C06A811A
:103FC0007B818C819D810E94C1300E94A31E74C0A0
:103FD0004B816A8189810E9456229C838D836CC0AB
:103FE0002C813D813227232732274B816A818981A9
:103FF0000E94772261C00E94FC225EC0C9010E941B
:104000001B1F5AC00E94661757C00E94D72399836E
:104010008A8352C089819A819827892798276B8142
:1040200070E06D31710508F047C0AE014C5F5F4F25
:104030000E94DA2341C08091150190911601892BCD
:10404000D9F189819A819827892798276B8170E017
:104050006D31710588F5AE014C5F5F4F0E94FF2303
:104060002BC00E94222428C00E944322898324C09E
:1040700089819A819827892798276B8170E06D3113
:104080007105D0F4AE014C5F5F4F0E94672314C0EE
:1040900089819A819827892798276B8170E06D31F3
:1040A000710550F4AE014C5F5F4F0E948B2304C03A
:1040B000612FCE010E94F71E612FCE01DF91CF91BB
:1040C0001F910F91FF90EF900C947829CF93DF937D
:1040D00000D000D01F92CDB7DEB790931903809324
:1040E0001803811520E2920748F40F900F900F906B
:1040F0000F900F90DF91CF910C9428058EEF89835C
:104100008A8381E08B830E948B288160782F9D8336
:104110008C8349815A816B818D810E9466070F9043
:104120000F900F900F900F90DF91CF910895CF9344
:10413000DF9300D000D01F92CDB7DEB79093190364
:1041400080931803811520E2920748F40F900F9096
:104150000F900F900F90DF91CF910C9441058EEF4F
:1041600089838A831B820E948B288160782F9D839C
:104170008C8349815A816B818D810E9466070F90E3
:104180000F900F900F900F90DF91CF9108950895A9
:10419000EF92FF920F931F93CF93DF93CDB7DEB7CC
:1041A00028970FB6F894DEBF0FBECDBF603209F07E
:1041B00007C1DC011196EC9111974E2F50E04E3063
:1041C000510508F0FDC08C01FA01EC58FF4F0C942A
:1041D000BB3088E0E2E2F1E0DE01119601900D9241
:1041E0008A95E1F780E2F80111928A95E9F784E077
:1041F000D8018C9311961C92119712961C921297CB
:1042000013961C92139788E0FE0131961496019044
:104210000D928A95E1F7D4C08CEBFD01808382E09A
:10422000818312821382CCC0DC0113968C91139788
:1042300090E0982F882712962C91820F911D092EBD
:10424000000CAA0BBB0B35E0880F991FAA1FBB1FE0
:104250003A95D1F7AC01BD01405E5F4F6F4F7F4F84
:10426000481759076A077B0708F4AAC08C3BE2E0AD
:104270009E07A105B10508F0A3C04D3BF2E05F0722
:104280006105710520F04CEB52E060E070E0481BE6
:10429000590BBC0169507B4FC80128960FB6F894A2
:1042A000DEBF0FBECDBFDF91CF911F910F91FF9069
:1042B000EF900C940531DC011296FC901297139646
:1042C000EC9040E06E2D8F2D0E94A022F80190838B
:1042D000818341E06E2D8F2D0E94A022D80112967D
:1042E0009C93129713968C936BC0FC0125813681A9
:1042F00032272327322744816381828128960FB693
:10430000F894DEBF0FBECDBFDF91CF911F910F910B
:10431000FF90EF900C94CA2240E250E06FEF70E003
:104320000E94283180911501D8018C9380919202CE
:1043300011968C9345C081E090E090939302809316
:10434000920282E390E090939102809390022896EB
:104350000FB6F894DEBF0FBECDBFDF91CF911F9196
:104360000F91FF90EF900C948B2880911501FD0127
:10437000808380919202818380919002828320C009
:1043800040E250E06FEF70E028960FB6F894DEBF81
:104390000FBECDBFDF91CF911F910F91FF90EF9096
:1043A0000C942831DC0112968C911297811108C06F
:1043B00080E2F80111928A95E9F71C9211961C92FD
:1043C00028960FB6F894DEBF0FBECDBFDF91CF9118
:1043D0001F910F91FF90EF900895AF92BF92CF92EF
:1043E000DF92EF92FF920F931F93CF93DF93B82E3C
:1043F000A62EC090020280910302C82AC7E0D0E036
:10440000D12CE12CF12CD701C6010C2E04C0B6959D
:10441000A795979587950A94D2F780FF13C04A2DE8
:104420006B2D8C2F0E94A0228C018130910551F0C0
:104430000E9466208FE39CE90197F1F700C000001D
:10444000C80111C02197F8F64A2D6B2D80E00E941B
:10445000A022EC010E9466208FE39CE90197F1F70E
:1044600000C00000CE010E94972081E0DF91CF9133
:104470001F910F91FF90EF90DF90CF90BF90AF9082
:10448000089581E0089583E0089550E0440F551F9A
:104490002CE1629F400D511D11249A016CE8869F0A
:1044A000200D311D1124C901879608950F931F9384
:1044B000CF93DF938330A0F4653090F44E3080F4D6
:1044C0000E9445228C010E942F3190E0D82FCC27EA
:1044D000C80101960E942F319E01282BC90102C0FC
:1044E00080E090E0DF91CF911F910F9108950F939D
:1044F0001F93CF93DF938330F0F46530E0F44E30B8
:10450000D0F421159CE5390731F4E0911501F091C3
:104510001601EF2B81F0E9010E9445228C016D2FDD
:104520000E9443316C2FC8010196DF91CF911F91FA
:104530000F910C944331DF91CF911F910F9108950A
:104540000F931F93CF93DF938330E8F461111BC067
:104550004230C8F4C42FD0E0CC0FDD1F24E0829F8E
:10456000C00DD11D1124C553DE4FCE010E942F3145
:1045700090E0182F0027CE0101960E942F3198015C
:10458000282BC90102C080E090E0DF91CF911F91FC
:104590000F9108950F931F93CF93DF93833038F5D6
:1045A000611125C0423018F521159CE5390731F419
:1045B0006091150170911601672BC9F08901C42F14
:1045C000D0E0CC0FDD1F94E0899FC00DD11D1124D8
:1045D000C553DE4F612FCE010E944331602FCE01C3
:1045E0000196DF91CF911F910F910C944331DF9190
:1045F000CF911F910F9108956F927F928F929F920A
:10460000AF92BF92CF92DF92EF92FF920F931F93E0
:10461000CF93DF93A0901501B090160181E090E058
:10462000909316018093150103EB17E0C12CD12C58
:10463000712C612CE12CF12CC0E0D0E046018E0CF5
:104640009F1CFE01EE0FFF1FE80DF91DE85EFE4FF7
:10465000259134914C2F662D872D0E94772221962B
:10466000CE30D10571F78CE1E80EF11C639485E042
:104670006812E2CFF8012591349140E060E0872D87
:104680000E94CA22F80132962591349141E060E0FF
:10469000872D0E94CA220C5F1F4F73948CE8C80EAE
:1046A000D11C83E07812C5CFB0921601A0921501FB
:1046B000DF91CF911F910F91FF90EF90DF90CF90FE
:1046C000BF90AF909F908F907F906F900895EF92E2
:1046D000FF920F931F93CF93DF93EA017A01E60EC7
:1046E000F71E8C01C8018796CE15DF0569F0043AE4
:1046F00021E0120720F40E942F31888301C0188224
:1047000021960F5F1F4FEECFDF91CF911F910F9139
:10471000FF90EF900895EF92FF920F931F93CF9326
:10472000DF938A01843A21E09207E0F424EA31E041
:10473000281B390B26173707A8F07A01E60EF71E5B
:10474000EC01CE0187960E151F0561F0C43AE1E039
:10475000DE0720F4F80160810E9443310F5F1F4F94
:104760002196EFCFDF91CF911F910F91FF90EF90A6
:104770000895462F2091920230919302232B91F4B9
:104780007E3F39F46E3F71F48091180390911903C4
:104790000895833038F4753028F46E3018F4672F9C
:1047A0000C94562280E090E0089580E1089589E21B
:1047B00092E00895EF92FF920F931F93CF93DF93B0
:1047C000EA017A01E60EF71E8C01C80189529E4F5C
:1047D000CE15DF0569F0093222E0120720F40E94AD
:1047E0002F31888301C0188221960F5F1F4FEDCFB4
:1047F000DF91CF911F910F91FF90EF900895EF926D
:10480000FF920F931F93CF93DF93EA017A01E60E95
:10481000F71E8C01C80189529E4FCE15DF0559F055
:10482000093222E0120718F468810E944331219670
:104830000F5F1F4FEFCFDF91CF911F910F91FF902F
:10484000EF900895CF93DF93C7EDD1E060E0CE0104
:104850000E9443312196C11584E0D807B9F7DF9152
:10486000CF910895AF92BF92CF92DF92EF92FF92D5
:104870000F931F93CF93DF9300D000D0CDB7DEB757
:10488000F82E2FE0281708F478C08FEF93E00E94ED
:104890002F31811172C007ED11E0FF2071F0011579
:1048A00084E0180709F469C0C8010E942F31811102
:1048B00001C0FA940F5F1F4FF0CF19821A821B823A
:1048C0001C82CC24CA947801EFEFEE1AFE0AC801CC
:1048D0000E942F3189831A82882309F44EC08130C7
:1048E00009F046C05801F2E0AF0EB11CC7010E94AA
:1048F0002F318A83882309F440C09FEF980F9330AB
:1049000060F4780123E0E20EF11CC5010E942F3112
:104910008B8381112DC08701D6CF843011F07501B2
:10492000FACFC5010E942F31D82E780184E0E80E1D
:10493000F11CC80103960E942F31DD20F1F088237D
:10494000E1F0282F30E021503109C29EA001C39E22
:10495000500D11248D2D90E00197840F951F019724
:10496000D0F2EFE9FFE03197F1F700C00000F7CF98
:10497000CE0101960E942907CECF0F900F900F9085
:104980000F90DF91CF911F910F91FF90EF90DF90EB
:10499000CF90BF90AF9008950F931F93CF93DF9365
:1049A000C42FD22FFC0182818823C9F04093960244
:1049B0000E948B28909395028093940280E28C0F42
:1049C000883008F057C0C77081E001C0880FCA95D1
:1049D000EAF7DF91CF911F910F910C9460088091BD
:1049E0009602481330C080919402909195020E94E3
:1049F000A328883C910538F510E21D0FCD17B9F0BA
:104A000080E28C0F883040F4C77081E001C0880FCD
:104A1000CA95EAF70E946708183028F581E09D2FB3
:104A2000977001C0880F9A95EAF70E946008802F5E
:104A30000E9457081830F0F4D77081E001C0880F49
:104A4000DA95EAF70AC080E28C0F883098F4C770D4
:104A500081E001C0880FCA95EAF7DF91CF911F91DD
:104A60000F910C946708802FDF91CF911F910F91C8
:104A70000C945708DF91CF911F910F9108950F93D8
:104A80009C01CB01233F4CE5340731F188F4283DEC
:104A9000FCE53F07D9F0293D4CE5340779F1273D86
:104AA0003C45A9F506E221EE41EE67ED7CE52BC021
:104AB000253FFCE53F07E1F0A8F0263F3C4539F5EE
:104AC00007E225EE46EE66EF7CE51DC007E225EE27
:104AD00045EE68ED7CE517C006E221EE40EE63EF9F
:104AE0007CE511C007E225EE44EE64EF7CE50BC0E7
:104AF00006E221EE42EE65EF7CE505C008E221E02A
:104B000045EE69ED7CE50E94CC2480E008C0FC0104
:104B10008281882319F01092960201C081E00F91E2
:104B20000895CF93DF93EC01FB018281882309F480
:104B30001FC1C230FCE5DF0708F41BC1C6319CE58C
:104B4000D90738F09E012A5F3C452930310508F02D
:104B500010C10E9448119093C5028093C402C031D5
:104B6000ECE5DE0709F4C3C008F041C0C8308CE5AD
:104B7000D80709F49AC0F0F4C430ECE5DE0709F474
:104B800087C068F4C2308CE5D80709F477C0C33019
:104B9000DC4509F0E3C08091C402826076C0C63073
:104BA000ECE5DE0709F46EC008F07BC08091C4021A
:104BB00088606BC0CC308CE5D80709F485C068F4F8
:104BC000CA30ECE5DE0709F474C008F079C00E9431
:104BD000EA0A8091C402806858C0CE308CE5D807BC
:104BE00009F476C008F07FC08091C4028BC0CB3F2F
:104BF000ECE5DE0709F44FC018F5C3318CE5D807A2
:104C000009F47DC078F4C131ECE5DE0709F473C026
:104C1000C231DC4509F0A2C00E94EA0A8091C402B8
:104C20008F7733C0C5318CE5D80709F472C008F41A
:104C300086C0CA3FDC4509F091C08091C5023EC0E4
:104C4000CF3FFCE5DF0709F45FC058F4CD3F9CE59A
:104C5000D90709F444C008F43FC08091C5028260BE
:104C60002DC0C130FDE5DF0709F475C008F45DC053
:104C7000C230DD4509F072C080E06EC08091C40290
:104C8000816003C08091C40280618093C40266C0C9
:104C90008091C40211C08091C50282608093C502D8
:104CA0005DC08091C4028062F0CF8091C4028064B4
:104CB000ECCF8091C40288608460E7CF8160EECF42
:104CC0008091C4028E7FE1CF8091C4028D7FDDCFC1
:104CD0008091C402877FD9CF8091C50218C080918E
:104CE000C5028D7FDBCF8091C4028F7ECECF8091B5
:104CF000C4028F7DCACF8091C4028F7BC6CF8091C2
:104D0000C402877F8B7FC1CF8091C5028D7F8E7F4C
:104D1000C5CF8091C40282FB222720F991E092271F
:104D200090FB82F990FB83F9B0CF8091C502982F58
:104D3000909591708E7F892B90FB81F9AFCF0E9467
:104D4000EA0A8091C40287FB222720F991E092278A
:104D500090FB87F99ACF81E00E94DE118091C40216
:104D60009091C5020E9459110E94EA0A80E001C098
:104D700081E0DF91CF910895CF93DF9386319C45F9
:104D800041F5EB010E943910982F8A812091000192
:104D900030910101882379F09A7A81E009F480E06A
:104DA00080939702911102C069E201C065E3C901D5
:104DB0000E94DA270AC080919702811102C069E23D
:104DC00001C065E3C9010E94E5270E949A1080E0B6
:104DD00001C081E0DF91CF91089590939D0280936F
:104DE0009C020895E0919C02F0919D02309721F081
:104DF0000190F081E02D099480E00895E0919C02FB
:104E0000F0919D02309799F020912101222359F0D1
:104E10002091C40227FF07C0DC012C9111962C932E
:104E2000119725E02C930280F381E02D09940895D9
:104E300020919A0230919B022817390771F09093C4
:104E40009B0280939A02E0919C02F0919D02309720
:104E500021F00680F781E02D0994089520919802B1
:104E6000309199022817390771F090939902809335
:104E70009802E0919C02F0919D02309721F000840D
:104E8000F185E02D09940895FC013296809121016D
:104E9000882331F08091C40287FF02C09EE101C0E7
:104EA00096E080E0915028F021912223D9F38F5F82
:104EB000F9CF0895662351F1209121012223E9F0D1
:104EC0002091C40227FF19C0462F46954695469566
:104ED0004E31E0F4677021E030E002C0220F331F52
:104EE0006A95E2F7FC01E40FF11D828190E028232E
:104EF000392381E0232B69F409C0FC01329608961E
:104F00002191621729F0E817F907D1F780E0089599
:104F100081E008959C01FC0132969FEF80E0419171
:104F2000461789F09F3F19F4411101C0982F8F5FF8
:104F30008630A9F79F3F39F0F901E90FF11D97FD80
:104F4000FA956283089508959C012A5F3F4FFC0102
:104F50004281461301C01282019682179307B9F766
:104F60000895262F2695269526952E3168F4FC0166
:104F7000E20FF11D677021E030E001C0220F6A9559
:104F8000EAF78281282B22830895262F26952695DD
:104F900026952E3170F4FC01E20FF11D677021E0BF
:104FA00030E001C0220F6A95EAF72095828128231C
:104FB0002283089520912101222329F02091C40207
:104FC00027FD0C94B1270C948A27209121012223DC
:104FD00029F02091C40227FD0C94C5270C94A42726
:104FE00020912101FC013296222331F08091C402EC
:104FF00087FF02C08EE101C086E0DF011D928A9525
:10500000E9F70895089508950C9403280C94032853
:10501000CF930E9406280E9406160E940428C0E032
:105020008C2F0E942915892B29F4CF5FC530C1F739
:1050300080E001C081E0CF9108950C9403280C9486
:105040001D2880912203843049F10E941F2880E0AE
:105050000E945D0710929E0220E488E190E00FB666
:10506000F894A895809360000FBE2093600083B7EA
:10507000817F846083BF83B7816083BF7894889584
:1050800083B78E7F83BF0FB6F894A8958091600098
:10509000886180936000109260000FBE08950C94A8
:1050A00003280E94EA0A0E94F2260E945D070C94DF
:1050B0004F281F920F920FB60F9211248F939F9338
:1050C000AF93BF9380919E02811113C080911A0308
:1050D00090911B03A0911C03B0911D034196A11D4B
:1050E000B11D80931A0390931B03A0931C03B093EC
:1050F0001D03BF91AF919F918F910F900FBE0F90A5
:105100001F90189582E084BD93E095BD9AEF97BDFE
:1051100080936E0008952FB7F89480911A039091B0
:105120001B03A0911C03B0911D032FBF08952FB73F
:10513000F89460911A0370911B0380911C03909165
:105140001D032FBF08959C014FB7F89480911A0357
:1051500090911B03A0911C03B0911D034FBF821BB4
:10516000930B089578941F920F920FB60F9211240B
:105170008F939F93AF93BF9380911A0390911B03DA
:10518000A0911C03B0911D030196A11DB11D809338
:105190001A0390931B03A0931C03B0931D03BF91AC
:1051A000AF919F918F910F900FBE0F901F90189508
:1051B00081E08093E00080E28093D8001092C900E3
:1051C0008FE19EE40197F1F700C0000087E090EBCB
:1051D000DC0180932B0390932C03A0932D03B093B9
:1051E0002E039CE088E10FB6F894A89580936000A8
:1051F0000FBE90936000FFCF9093E5018093E40190
:1052000008958091C202089590912203943029F567
:1052100080939F027093A1026093A0029093E90093
:105220008FEF9091E800815095FD06C095ED9A951D
:10523000F1F700008111F5CF8091E80085FF0DC0E6
:1052400040E050E063E070E08FE992E00E947A2B4A
:105250008091E8008E778093E8000895BC0184E097
:105260000C940429BC0183E00C940429CF93DF93B0
:1052700020912101222339F02091C40227FF03C08D
:1052800060E224E002C068E021E02093E9002FEF13
:105290003091E800215035FD06C035ED3A95F1F723
:1052A00000002111F5CF2091E80025FF1DC0EC0181
:1052B00080912101811105C040E050E068E070E07C
:1052C00003C070E040E050E0CE010E947A2B809154
:1052D000E8008E778093E80080E2FE01A2EAB2E067
:1052E00001900D928A95E1F7DF91CF91089508958D
:1052F000CF93603219F5209122032430F9F4C09144
:10530000E900CF703091EC00232F217030FD20E8B0
:10531000C22B22E02093E9002091E80020FF0BC07F
:1053200040E050E060E270E00E947A2B8091E8005B
:105330008E778093E800CF70C093E900CF910895F5
:1053400080912103811109C00E94562D0E94B32D26
:105350008091E20084608093E2000895109221031E
:10536000089508950895089542E061EC81E00E9457
:10537000CF2C42E261EC84E00E94CF2C42E261EC4F
:1053800082E00E94CF2C42E260EC83E00C94CF2CB0
:1053900080912403833009F462C030F4813071F0CD
:1053A000823009F49BC008958A3009F487C08B309D
:1053B00009F46DC0893009F0A9C020C08091230391
:1053C000813A09F0A3C08091E800877F8093E800CC
:1053D0008091270390912803892B21F460E282EACF
:1053E00092E003C060E080E090E070E00E94102C4A
:1053F0008091E8008B778093E800089580912303E3
:10540000813209F083C0809127039091280300978F
:1054100019F0029709F07AC08091E800877F8093A5
:10542000E8008091E80082FD05C08091220381118F
:10543000F8CF6CC02091F3008091F20090E0922BA5
:10544000029729F48091F1008B7F813021F48091C3
:10545000F1008093C2028091E8008B7753C0809165
:105460002303813A09F052C08091270390912803C9
:10547000892B09F04BC08091E800877F8093E8007A
:105480008091E80080FFFCCF8091210136C080919F
:1054900023038132D9F58091270390912803892B2A
:1054A000A9F58091E800877F8093E8000E94042D91
:1054B00080912503809321010C94EA0A80912303B3
:1054C000813221F58091E800877F8093E8000E9477
:1054D000042D809126038093C302089580912303B5
:1054E000813AA1F48091E800877F8093E800809161
:1054F000E80080FFFCCF8091C3028093F10080918F
:10550000E8008E778093E8000C94042D089584B70A
:10551000877F84BF0FB6F894A8958091600088615A
:1055200080936000109260000FBE90E080E80FB69C
:10553000F89480936100909361000FBE0C94211247
:105540000E94562D0E94B32DE2EEF0E0808184602F
:10555000808378940E9448300E94311287E191E064
:105560000C94ED26CF93DF93CDB7DEB7A0970FB69F
:10557000F894DEBF0FBECDBF809122038530A9F421
:1055800080912203853079F40E94212880912003A4
:105590008823B1F30E940828882391F30E94642B8A
:1055A0000E94EA0AEDCF0E9451280E943D1280918C
:1055B0002203843011F583E08093E9008091E800B4
:1055C00082FF1BC08091E80085FF0AC040E050E0E8
:1055D00060E270E0CE0101960E94C52B91E001C00F
:1055E00090E08091E8008B778093E800992329F080
:1055F00060E2CE0101960E94511FA0960FB6F8946A
:10560000DEBF0FBECDBFDF91CF9108950C94082B64
:10561000292F332723303105C9F060F421303105BB
:1056200081F02230310509F047C08BE590E02FE092
:1056300038E046C02132310511F12232310561F1E5
:105640003BC082E190E02AE638E03AC099278130F9
:10565000910561F040F08230910559F0039761F5B2
:10566000EFEBF7E008C0EBE0F8E005C0E1E0F8E0C0
:1056700002C0EDEDF7E0849190E09F0121C063301E
:105680007105D0F4660F771FFB01E352FE4F2081B6
:10569000318189E090E014C06330710568F4FB014A
:1056A000EE0FFF1FE952FE4F20813181FB01EC52CA
:1056B000FE4F808190E004C080E090E020E030E088
:1056C000FA0131832083089580E189BD82E189BD9B
:1056D00009B400FEFDCF8091D8008F7D8093D80063
:1056E0008091E00082608093E0008091E00081FD85
:1056F000FCCF0895CF92DF92EF92FF920F931F930A
:10570000CF93DF93EC018B017A010E94232D81114D
:1057100033C0E114F10439F0F70180819181081B55
:10572000190BC80FD91FC12CD12C0115110519F166
:105730008091E80085FD16C08091E8008E77809307
:10574000E800E114F10449F0F70180819181C80E6D
:10575000D91ED182C08285E00FC00E94232D8823EC
:1057600021F30AC089918093F10001501109FFEFE4
:10577000CF1ADF0ADACF80E0DF91CF911F910F912E
:10578000FF90EF90DF90CF900895CF92DF92EF924D
:10579000FF920F931F93CF93DF93EC018B017A015C
:1057A0000E94232D811133C0E114F10439F0F70177
:1057B00080819181081B190BC80FD91FC12CD12CD6
:1057C0000115110519F18091E80085FD16C0809141
:1057D000E8008B778093E800E114F10449F0F701C9
:1057E00080819181C80ED91ED182C08285E00FC010
:1057F0000E94232D882321F30AC08091F100899310
:1058000001501109FFEFCF1ADF0ADACF80E0DF91F4
:10581000CF911F910F91FF90EF90DF90CF9008955F
:105820002091290330912A032617370748F0611584
:10583000710539F42091E8002E772093E80001C02B
:10584000B901FC0120E06115710579F18091220315
:105850008823F1F18530F1F18091E80083FD3CC0AF
:105860008091E80082FD2EC08091E80080FFEBCFA0
:105870002091F3008091F20090E0922B6115710568
:1058800051F08830910538F421912093F100615056
:1058900071090196F3CF21E0089709F020E080918B
:1058A000E8008E778093E800CECF2111CFCF0AC0D9
:1058B00080912203882361F0853061F08091E800B7
:1058C00083FD0AC08091E80082FFF2CF80E0089556
:1058D00082E0089583E0089581E0089520912903EE
:1058E00030912A032617370748F06115710539F4FE
:1058F0002091E8002E772093E80001C0B901FC0157
:1059000020E06115710591F180912203882309F44B
:1059100040C0853009F43FC08091E80083FD3DC060
:105920008091E80082FD2FC08091E80080FFE9CFE0
:105930002091F3008091F20090E0922B61157105A7
:1059400059F08830910540F424912093F10031966C
:10595000615071090196F2CF21E0089709F020E02B
:105960008091E8008E778093E800CBCF2111CCCFD7
:105970000AC080912203882361F0853061F0809114
:10598000E80083FD0AC08091E80082FFF2CF80E04A
:10599000089582E0089583E0089581E00895982FA6
:1059A000973068F59093E900981739F07091EC0002
:1059B0002091ED005091F00003C0242F762F50E08D
:1059C00021FD02C09F5FECCF3091EB003E7F309312
:1059D000EB003091ED003D7F3093ED003091EB0016
:1059E00031603093EB007093EC002093ED00509306
:1059F000F0002091EE0027FDE5CF80E008958F7044
:105A00008093E90081E008958091230387FF11C00E
:105A10008091E80082FD05C0809122038111F8CFBA
:105A200011C08091E8008B770BC0809122038823FE
:105A300049F08091E80080FFF8CF8091E8008E77F0
:105A40008093E80008952091E4003091E50095E608
:105A50004091EC00842F817040FF23C08091E800CA
:105A600080FD1DC080912203882399F0853099F034
:105A70008091EB0085FD11C04091E4005091E5005C
:105A80002417350729F3915011F09A01E1CF84E0F2
:105A9000089582E0089583E0089581E0089580E00C
:105AA00008954091E80042FFDDCF08950E94C42D83
:105AB0000E94CC2DE0EEF0E0808181608083E8EDF3
:105AC000F0E080818F77808319BCA7EDB0E08C91E6
:105AD0008E7F8C9380818F7E808310922103089526
